:020000040800F2
:10000000000001207D010008710100087101000855
:100010007101000871010008710100080000000072
:100020007101000871010008000000007101000862
:1000300071010008710100087101000871010008D8
:1000400071010008710100087101000871010008C8
:1000500071010008710100087101000871010008B8
:1000600071010008710100087101000871010008A8
:100070007101000871010008710100087101000898
:100080007101000871010008710100087101000888
:100090007101000871010008710100087101000878
:1000A0007101000871010008710100087101000868
:1000B0007101000871010008710100087101000858
:1000C0007101000871010008710100087101000848
:1000D0007101000871010008710100087101000838
:1000E0007101000871010008710100087101000828
:1000F0007101000871010008710100087101000818
:100100007101000871010008710100087101000807
:080110007101000871010008F3
:1001180080B582B000AF64210A2000F07DF87860D5
:10012800FF237B600A4B1B7832331A46094B1A604F
:10013800094B01221A60094B4FF055321A60084BDF
:1001480000221A60074B45F255521A60FEE700BFBD
:10015800080000200400002030380240000002405F
:10016800040002401400024080B400AF00BFBD4646
:1001780080BC704780B586B000AF00237B60002349
:100188007B6100233B611C4A1C4BD31A9B107B608C
:100198001B4B7B61194B3B610023FB600AE07A69CA
:1001A800131D7B613B69191D396112681A60FB6870
:1001B8000133FB60FA687B689A42F0D3114A124B0C
:1001C800D31A9B107B60104B3B610023BB6007E098
:1001D8003B691A1D3A6100221A60BB680133BB6093
:1001E800BA687B689A42F3D300F010F8FFF790FFE3
:1001F80000BF1837BD4680BD100000200000002059
:10020800480200081C0000201000002080B400AF45
:0802180000BFBD4680BC704729
:1002200080B485B000AF03460A46FB711346BB712C
:10023000FA79BB791344FB60FB6818461437BD4656
:0402400080BC7047C7
:040244000000012095
:100248000A1400000F00000064000000C80000004D
:0400000508000118D6
:00000001FF
